{
  "_format": "hh3-artifact-1",
  "contractName": "Kickstarter",
  "sourceName": "contracts/Kickstarter.sol",
  "abi": [
    {
      "inputs": [
        {
          "internalType": "uint256",
          "name": "_maxOpenProjectByOwner",
          "type": "uint256"
        }
      ],
      "stateMutability": "nonpayable",
      "type": "constructor"
    },
    {
      "inputs": [],
      "name": "ContributionWindowOver",
      "type": "error"
    },
    {
      "inputs": [],
      "name": "DirectEtherNotAllowed",
      "type": "error"
    },
    {
      "inputs": [],
      "name": "EndMustBeInTheFuture",
      "type": "error"
    },
    {
      "inputs": [],
      "name": "ErrorSendingEther",
      "type": "error"
    },
    {
      "inputs": [],
      "name": "GoalNotReached",
      "type": "error"
    },
    {
      "inputs": [],
      "name": "InsufficientContractBalance",
      "type": "error"
    },
    {
      "inputs": [],
      "name": "NotEnoughBalance",
      "type": "error"
    },
    {
      "inputs": [],
      "name": "NotTheOwner",
      "type": "error"
    },
    {
      "inputs": [],
      "name": "NothingToWithdraw",
      "type": "error"
    },
    {
      "inputs": [],
      "name": "OwnerPaymentFailed",
      "type": "error"
    },
    {
      "inputs": [],
      "name": "ProjectBalanceNotEmpty",
      "type": "error"
    },
    {
      "inputs": [],
      "name": "ProjectClosed",
      "type": "error"
    },
    {
      "inputs": [],
      "name": "ProjectDoesNotExist",
      "type": "error"
    },
    {
      "inputs": [],
      "name": "ReentrancyGuardReentrantCall",
      "type": "error"
    },
    {
      "inputs": [],
      "name": "RefundFailed",
      "type": "error"
    },
    {
      "inputs": [],
      "name": "SelfContributionForbidden",
      "type": "error"
    },
    {
      "inputs": [],
      "name": "TooManyOpenProjects",
      "type": "error"
    },
    {
      "inputs": [],
      "name": "ZeroValue",
      "type": "error"
    },
    {
      "stateMutability": "payable",
      "type": "fallback"
    },
    {
      "inputs": [
        {
          "internalType": "uint256",
          "name": "_projectId",
          "type": "uint256"
        }
      ],
      "name": "closeProject",
      "outputs": [],
      "stateMutability": "nonpayable",
      "type": "function"
    },
    {
      "inputs": [
        {
          "internalType": "uint256",
          "name": "_projectId",
          "type": "uint256"
        }
      ],
      "name": "contribute",
      "outputs": [],
      "stateMutability": "payable",
      "type": "function"
    },
    {
      "inputs": [
        {
          "internalType": "uint256",
          "name": "",
          "type": "uint256"
        },
        {
          "internalType": "address",
          "name": "",
          "type": "address"
        }
      ],
      "name": "contributions",
      "outputs": [
        {
          "internalType": "uint256",
          "name": "",
          "type": "uint256"
        }
      ],
      "stateMutability": "view",
      "type": "function"
    },
    {
      "inputs": [
        {
          "internalType": "string",
          "name": "_title",
          "type": "string"
        },
        {
          "internalType": "uint256",
          "name": "_goal",
          "type": "uint256"
        },
        {
          "internalType": "uint48",
          "name": "_endTimestamp",
          "type": "uint48"
        }
      ],
      "name": "createProject",
      "outputs": [
        {
          "internalType": "uint256",
          "name": "id",
          "type": "uint256"
        }
      ],
      "stateMutability": "nonpayable",
      "type": "function"
    },
    {
      "inputs": [],
      "name": "getAll",
      "outputs": [
        {
          "components": [
            {
              "internalType": "uint256",
              "name": "id",
              "type": "uint256"
            },
            {
              "internalType": "bool",
              "name": "isOpen",
              "type": "bool"
            },
            {
              "internalType": "uint48",
              "name": "endTimestamp",
              "type": "uint48"
            },
            {
              "internalType": "address",
              "name": "owner",
              "type": "address"
            },
            {
              "internalType": "uint256",
              "name": "goal",
              "type": "uint256"
            },
            {
              "internalType": "uint256",
              "name": "pledged",
              "type": "uint256"
            },
            {
              "internalType": "uint256",
              "name": "withdrawn",
              "type": "uint256"
            },
            {
              "internalType": "string",
              "name": "title",
              "type": "string"
            }
          ],
          "internalType": "struct Kickstarter.Project[]",
          "name": "projects",
          "type": "tuple[]"
        }
      ],
      "stateMutability": "view",
      "type": "function"
    },
    {
      "inputs": [],
      "name": "maxOpenProject",
      "outputs": [
        {
          "internalType": "uint256",
          "name": "",
          "type": "uint256"
        }
      ],
      "stateMutability": "view",
      "type": "function"
    },
    {
      "inputs": [
        {
          "internalType": "address",
          "name": "_owner",
          "type": "address"
        }
      ],
      "name": "openProjectsByOwner",
      "outputs": [
        {
          "internalType": "uint256",
          "name": "",
          "type": "uint256"
        }
      ],
      "stateMutability": "view",
      "type": "function"
    },
    {
      "inputs": [
        {
          "internalType": "address",
          "name": "",
          "type": "address"
        },
        {
          "internalType": "uint256",
          "name": "",
          "type": "uint256"
        }
      ],
      "name": "ownerProjectIds",
      "outputs": [
        {
          "internalType": "uint256",
          "name": "",
          "type": "uint256"
        }
      ],
      "stateMutability": "view",
      "type": "function"
    },
    {
      "inputs": [
        {
          "internalType": "uint256",
          "name": "",
          "type": "uint256"
        }
      ],
      "name": "projectsById",
      "outputs": [
        {
          "internalType": "uint256",
          "name": "id",
          "type": "uint256"
        },
        {
          "internalType": "bool",
          "name": "isOpen",
          "type": "bool"
        },
        {
          "internalType": "uint48",
          "name": "endTimestamp",
          "type": "uint48"
        },
        {
          "internalType": "address",
          "name": "owner",
          "type": "address"
        },
        {
          "internalType": "uint256",
          "name": "goal",
          "type": "uint256"
        },
        {
          "internalType": "uint256",
          "name": "pledged",
          "type": "uint256"
        },
        {
          "internalType": "uint256",
          "name": "withdrawn",
          "type": "uint256"
        },
        {
          "internalType": "string",
          "name": "title",
          "type": "string"
        }
      ],
      "stateMutability": "view",
      "type": "function"
    },
    {
      "inputs": [
        {
          "internalType": "uint256",
          "name": "_projectId",
          "type": "uint256"
        },
        {
          "internalType": "uint256",
          "name": "_amount",
          "type": "uint256"
        }
      ],
      "name": "withdraw",
      "outputs": [],
      "stateMutability": "nonpayable",
      "type": "function"
    },
    {
      "stateMutability": "payable",
      "type": "receive"
    }
  ],
  "bytecode": "0x60a060405234801561000f575f5ffd5b506040516120f13803806120f18339818101604052810190610031919061007d565b60015f819055508060808181525050506100a8565b5f5ffd5b5f819050919050565b61005c8161004a565b8114610066575f5ffd5b50565b5f8151905061007781610053565b92915050565b5f6020828403121561009257610091610046565b5b5f61009f84828501610069565b91505092915050565b60805161202a6100c75f395f818161094b0152610fed015261202a5ff3fe608060405260043610610094575f3560e01c80636d90e50a116100585780636d90e50a1461020a57806393dc12e614610234578063c1cbbca71461025c578063c7d7ab7714610278578063e70db2d6146102b4576100cb565b806324151436146100fd5780633d891f5914610140578063441a3e701461017c578063496c0a83146101a457806353ed5143146101e0576100cb565b366100cb576040517fc39ef10d00000000000000000000000000000000000000000000000000000000815260040160405180910390fd5b6040517fc39ef10d00000000000000000000000000000000000000000000000000000000815260040160405180910390fd5b348015610108575f5ffd5b50610123600480360381019061011e9190611544565b6102f0565b604051610137989796959493929190611667565b60405180910390f35b34801561014b575f5ffd5b5061016660048036038101906101619190611714565b6103f8565b6040516101739190611752565b60405180910390f35b348015610187575f5ffd5b506101a2600480360381019061019d919061176b565b610418565b005b3480156101af575f5ffd5b506101ca60048036038101906101c591906117a9565b610724565b6040516101d79190611752565b60405180910390f35b3480156101eb575f5ffd5b506101f4610735565b60405161020191906119c0565b60405180910390f35b348015610215575f5ffd5b5061021e610949565b60405161022b9190611752565b60405180910390f35b34801561023f575f5ffd5b5061025a60048036038101906102559190611544565b61096d565b005b61027660048036038101906102719190611544565b610b19565b005b348015610283575f5ffd5b5061029e600480360381019061029991906119e0565b610f0b565b6040516102ab9190611752565b60405180910390f35b3480156102bf575f5ffd5b506102da60048036038101906102d59190611b74565b610f36565b6040516102e79190611752565b60405180910390f35b6002602052805f5260405f205f91509050805f015490806001015f9054906101000a900460ff16908060010160019054906101000a900465ffffffffffff16908060010160079054906101000a900473ffffffffffffffffffffffffffffffffffffffff169080600201549080600301549080600401549080600501805461037790611c0d565b80601f01602080910402602001604051908101604052809291908181526020018280546103a390611c0d565b80156103ee5780601f106103c5576101008083540402835291602001916103ee565b820191905f5260205f20905b8154815290600101906020018083116103d157829003601f168201915b5050505050905088565b6004602052815f5260405f20602052805f5260405f205f91509150505481565b610420611206565b5f60025f8481526020019081526020015f2090505f60045f8581526020019081526020015f205f3373ffffffffffffffffffffffffffffffffffffffff1673ffffffffffffffffffffffffffffffffffffffff1681526020019081526020015f205490505f73ffffffffffffffffffffffffffffffffffffffff168260010160079054906101000a900473ffffffffffffffffffffffffffffffffffffffff1673ffffffffffffffffffffffffffffffffffffffff160361050d576040517f38fde52b00000000000000000000000000000000000000000000000000000000815260040160405180910390fd5b816001015f9054906101000a900460ff16610554576040517f4de9ddd200000000000000000000000000000000000000000000000000000000815260040160405180910390fd5b5f830361058d576040517f7c946ed700000000000000000000000000000000000000000000000000000000815260040160405180910390fd5b5f81036105c6576040517fd0d04f6000000000000000000000000000000000000000000000000000000000815260040160405180910390fd5b82811015610600576040517fad3a8b9e00000000000000000000000000000000000000000000000000000000815260040160405180910390fd5b828161060c9190611c6a565b60045f8681526020019081526020015f205f3373ffffffffffffffffffffffffffffffffffffffff1673ffffffffffffffffffffffffffffffffffffffff1681526020019081526020015f208190555082826003015f82825461066f9190611c6a565b925050819055505f3373ffffffffffffffffffffffffffffffffffffffff168460405161069b90611cca565b5f6040518083038185875af1925050503d805f81146106d5576040519150601f19603f3d011682016040523d82523d5f602084013e6106da565b606091505b5050905080610715576040517f25478fb800000000000000000000000000000000000000000000000000000000815260040160405180910390fd5b50505061072061124a565b5050565b5f61072e82611253565b9050919050565b606060015467ffffffffffffffff81111561075357610752611a26565b5b60405190808252806020026020018201604052801561078c57816020015b6107796114a2565b8152602001906001900390816107715790505b5090505f5f90505b6001548110156109455760025f6001836107ae9190611cde565b81526020019081526020015f20604051806101000160405290815f8201548152602001600182015f9054906101000a900460ff161515151581526020016001820160019054906101000a900465ffffffffffff1665ffffffffffff1665ffffffffffff1681526020016001820160079054906101000a900473ffffffffffffffffffffffffffffffffffffffff1673ffffffffffffffffffffffffffffffffffffffff1673ffffffffffffffffffffffffffffffffffffffff16815260200160028201548152602001600382015481526020016004820154815260200160058201805461089a90611c0d565b80601f01602080910402602001604051908101604052809291908181526020018280546108c690611c0d565b80156109115780601f106108e857610100808354040283529160200191610911565b820191905f5260205f20905b8154815290600101906020018083116108f457829003601f168201915b50505050508152505082828151811061092d5761092c611d11565b5b60200260200101819052508080600101915050610794565b5090565b7f000000000000000000000000000000000000000000000000000000000000000081565b5f60025f8381526020019081526020015f2090505f73ffffffffffffffffffffffffffffffffffffffff168160010160079054906101000a900473ffffffffffffffffffffffffffffffffffffffff1673ffffffffffffffffffffffffffffffffffffffff1603610a0a576040517f38fde52b00000000000000000000000000000000000000000000000000000000815260040160405180910390fd5b8060010160079054906101000a900473ffffffffffffffffffffffffffffffffffffffff1673ffffffffffffffffffffffffffffffffffffffff163373ffffffffffffffffffffffffffffffffffffffff1614610a93576040517f36b6b89500000000000000000000000000000000000000000000000000000000815260040160405180910390fd5b806001015f9054906101000a900460ff161580610ac357505f81600401548260030154610ac09190611c6a565b14155b15610afa576040517fa9d692a900000000000000000000000000000000000000000000000000000000815260040160405180910390fd5b5f816001015f6101000a81548160ff0219169083151502179055505050565b610b21611206565b5f60025f8381526020019081526020015f2090505f73ffffffffffffffffffffffffffffffffffffffff168160010160079054906101000a900473ffffffffffffffffffffffffffffffffffffffff1673ffffffffffffffffffffffffffffffffffffffff1603610bbe576040517f38fde52b00000000000000000000000000000000000000000000000000000000815260040160405180910390fd5b806001015f9054906101000a900460ff16610c05576040517f4de9ddd200000000000000000000000000000000000000000000000000000000815260040160405180910390fd5b8060010160019054906101000a900465ffffffffffff1665ffffffffffff164210610c5c576040517f359055ee00000000000000000000000000000000000000000000000000000000815260040160405180910390fd5b8060010160079054906101000a900473ffffffffffffffffffffffffffffffffffffffff1673ffffffffffffffffffffffffffffffffffffffff163373ffffffffffffffffffffffffffffffffffffffff1603610ce5576040517f14c7a0d600000000000000000000000000000000000000000000000000000000815260040160405180910390fd5b5f3403610d1e576040517f7c946ed700000000000000000000000000000000000000000000000000000000815260040160405180910390fd5b5f81600401548260030154610d339190611c6a565b90505f81836002015411610d47575f610d58565b818360020154610d579190611c6a565b5b90505f81341115610d695781610d6b565b345b90505f8134610d7a9190611c6a565b90505f821115610e01578160045f8881526020019081526020015f205f3373ffffffffffffffffffffffffffffffffffffffff1673ffffffffffffffffffffffffffffffffffffffff1681526020019081526020015f205f828254610ddf9190611cde565b9250508190555081856003015f828254610df99190611cde565b925050819055505b5f856002015486600401548760030154610e1b9190611c6a565b101590508015610e41575f866001015f6101000a81548160ff0219169083151502179055505b5f821115610eea575f3373ffffffffffffffffffffffffffffffffffffffff1683604051610e6e90611cca565b5f6040518083038185875af1925050503d805f8114610ea8576040519150601f19603f3d011682016040523d82523d5f602084013e610ead565b606091505b5050905080610ee8576040517ff0c49d4400000000000000000000000000000000000000000000000000000000815260040160405180910390fd5b505b8015610efa57610ef987611303565b5b505050505050610f0861124a565b50565b6003602052815f5260405f208181548110610f24575f80fd5b905f5260205f20015f91509150505481565b5f5f845103610f71576040517f7c946ed700000000000000000000000000000000000000000000000000000000815260040160405180910390fd5b5f8303610faa576040517f7c946ed700000000000000000000000000000000000000000000000000000000815260040160405180910390fd5b428265ffffffffffff1611610feb576040517f0afe315c00000000000000000000000000000000000000000000000000000000815260040160405180910390fd5b7f000000000000000000000000000000000000000000000000000000000000000061101533611253565b1061104c576040517fd42fa21d00000000000000000000000000000000000000000000000000000000815260040160405180910390fd5b60015f815461105a90611d3e565b91905081905590506040518061010001604052808281526020016001151581526020018365ffffffffffff1681526020013373ffffffffffffffffffffffffffffffffffffffff1681526020018481526020015f81526020015f81526020018581525060025f8381526020019081526020015f205f820151815f01556020820151816001015f6101000a81548160ff02191690831515021790555060408201518160010160016101000a81548165ffffffffffff021916908365ffffffffffff16021790555060608201518160010160076101000a81548173ffffffffffffffffffffffffffffffffffffffff021916908373ffffffffffffffffffffffffffffffffffffffff1602179055506080820151816002015560a0820151816003015560c0820151816004015560e082015181600501908161119a9190611f25565b5090505060035f3373ffffffffffffffffffffffffffffffffffffffff1673ffffffffffffffffffffffffffffffffffffffff1681526020019081526020015f2081908060018154018082558091505060019003905f5260205f20015f90919091909150559392505050565b60025f5403611241576040517f3ee5aeb500000000000000000000000000000000000000000000000000000000815260040160405180910390fd5b60025f81905550565b60015f81905550565b5f5f60035f8473ffffffffffffffffffffffffffffffffffffffff1673ffffffffffffffffffffffffffffffffffffffff1681526020019081526020015f2090505f5f90505b81805490508110156112fc5760025f8383815481106112bb576112ba611d11565b5b905f5260205f20015481526020019081526020015f206001015f9054906101000a900460ff16156112ef5782806001019350505b8080600101915050611299565b5050919050565b5f60025f8381526020019081526020015f209050806001015f9054906101000a900460ff161561135f576040517f78c754c900000000000000000000000000000000000000000000000000000000815260040160405180910390fd5b5f816004015482600201546113749190611c6a565b90505f810361138457505061149f565b80826004015f8282546113979190611cde565b92505081905550804710156113d8576040517f786e0a9900000000000000000000000000000000000000000000000000000000815260040160405180910390fd5b5f8260010160079054906101000a900473ffffffffffffffffffffffffffffffffffffffff1673ffffffffffffffffffffffffffffffffffffffff168260405161142190611cca565b5f6040518083038185875af1925050503d805f811461145b576040519150601f19603f3d011682016040523d82523d5f602084013e611460565b606091505b505090508061149b576040517fdf01168100000000000000000000000000000000000000000000000000000000815260040160405180910390fd5b5050505b50565b6040518061010001604052805f81526020015f151581526020015f65ffffffffffff1681526020015f73ffffffffffffffffffffffffffffffffffffffff1681526020015f81526020015f81526020015f8152602001606081525090565b5f604051905090565b5f5ffd5b5f5ffd5b5f819050919050565b61152381611511565b811461152d575f5ffd5b50565b5f8135905061153e8161151a565b92915050565b5f6020828403121561155957611558611509565b5b5f61156684828501611530565b91505092915050565b61157881611511565b82525050565b5f8115159050919050565b6115928161157e565b82525050565b5f65ffffffffffff82169050919050565b6115b281611598565b82525050565b5f73ffffffffffffffffffffffffffffffffffffffff82169050919050565b5f6115e1826115b8565b9050919050565b6115f1816115d7565b82525050565b5f81519050919050565b5f82825260208201905092915050565b8281835e5f83830152505050565b5f601f19601f8301169050919050565b5f611639826115f7565b6116438185611601565b9350611653818560208601611611565b61165c8161161f565b840191505092915050565b5f6101008201905061167b5f83018b61156f565b611688602083018a611589565b61169560408301896115a9565b6116a260608301886115e8565b6116af608083018761156f565b6116bc60a083018661156f565b6116c960c083018561156f565b81810360e08301526116db818461162f565b90509998505050505050505050565b6116f3816115d7565b81146116fd575f5ffd5b50565b5f8135905061170e816116ea565b92915050565b5f5f6040838503121561172a57611729611509565b5b5f61173785828601611530565b925050602061174885828601611700565b9150509250929050565b5f6020820190506117655f83018461156f565b92915050565b5f5f6040838503121561178157611780611509565b5b5f61178e85828601611530565b925050602061179f85828601611530565b9150509250929050565b5f602082840312156117be576117bd611509565b5b5f6117cb84828501611700565b91505092915050565b5f81519050919050565b5f82825260208201905092915050565b5f819050602082019050919050565b61180681611511565b82525050565b6118158161157e565b82525050565b61182481611598565b82525050565b611833816115d7565b82525050565b5f82825260208201905092915050565b5f611853826115f7565b61185d8185611839565b935061186d818560208601611611565b6118768161161f565b840191505092915050565b5f61010083015f8301516118975f8601826117fd565b5060208301516118aa602086018261180c565b5060408301516118bd604086018261181b565b5060608301516118d0606086018261182a565b5060808301516118e360808601826117fd565b5060a08301516118f660a08601826117fd565b5060c083015161190960c08601826117fd565b5060e083015184820360e08601526119218282611849565b9150508091505092915050565b5f6119398383611881565b905092915050565b5f602082019050919050565b5f611957826117d4565b61196181856117de565b935083602082028501611973856117ee565b805f5b858110156119ae578484038952815161198f858261192e565b945061199a83611941565b925060208a01995050600181019050611976565b50829750879550505050505092915050565b5f6020820190508181035f8301526119d8818461194d565b905092915050565b5f5f604083850312156119f6576119f5611509565b5b5f611a0385828601611700565b9250506020611a1485828601611530565b9150509250929050565b5f5ffd5b5f5ffd5b7f4e487b71000000000000000000000000000000000000000000000000000000005f52604160045260245ffd5b611a5c8261161f565b810181811067ffffffffffffffff82111715611a7b57611a7a611a26565b5b80604052505050565b5f611a8d611500565b9050611a998282611a53565b919050565b5f67ffffffffffffffff821115611ab857611ab7611a26565b5b611ac18261161f565b9050602081019050919050565b828183375f83830152505050565b5f611aee611ae984611a9e565b611a84565b905082815260208101848484011115611b0a57611b09611a22565b5b611b15848285611ace565b509392505050565b5f82601f830112611b3157611b30611a1e565b5b8135611b41848260208601611adc565b91505092915050565b611b5381611598565b8114611b5d575f5ffd5b50565b5f81359050611b6e81611b4a565b92915050565b5f5f5f60608486031215611b8b57611b8a611509565b5b5f84013567ffffffffffffffff811115611ba857611ba761150d565b5b611bb486828701611b1d565b9350506020611bc586828701611530565b9250506040611bd686828701611b60565b9150509250925092565b7f4e487b71000000000000000000000000000000000000000000000000000000005f52602260045260245ffd5b5f6002820490506001821680611c2457607f821691505b602082108103611c3757611c36611be0565b5b50919050565b7f4e487b71000000000000000000000000000000000000000000000000000000005f52601160045260245ffd5b5f611c7482611511565b9150611c7f83611511565b9250828203905081811115611c9757611c96611c3d565b5b92915050565b5f81905092915050565b50565b5f611cb55f83611c9d565b9150611cc082611ca7565b5f82019050919050565b5f611cd482611caa565b9150819050919050565b5f611ce882611511565b9150611cf383611511565b9250828201905080821115611d0b57611d0a611c3d565b5b92915050565b7f4e487b71000000000000000000000000000000000000000000000000000000005f52603260045260245ffd5b5f611d4882611511565b91507fffffffffffffffffffffffffffffffffffffffffffffffffffffffffffffffff8203611d7a57611d79611c3d565b5b600182019050919050565b5f819050815f5260205f209050919050565b5f6020601f8301049050919050565b5f82821b905092915050565b5f60088302611de17fffffffffffffffffffffffffffffffffffffffffffffffffffffffffffffffff82611da6565b611deb8683611da6565b95508019841693508086168417925050509392505050565b5f819050919050565b5f611e26611e21611e1c84611511565b611e03565b611511565b9050919050565b5f819050919050565b611e3f83611e0c565b611e53611e4b82611e2d565b848454611db2565b825550505050565b5f5f905090565b611e6a611e5b565b611e75818484611e36565b505050565b5b81811015611e9857611e8d5f82611e62565b600181019050611e7b565b5050565b601f821115611edd57611eae81611d85565b611eb784611d97565b81016020851015611ec6578190505b611eda611ed285611d97565b830182611e7a565b50505b505050565b5f82821c905092915050565b5f611efd5f1984600802611ee2565b1980831691505092915050565b5f611f158383611eee565b9150826002028217905092915050565b611f2e826115f7565b67ffffffffffffffff811115611f4757611f46611a26565b5b611f518254611c0d565b611f5c828285611e9c565b5f60209050601f831160018114611f8d575f8415611f7b578287015190505b611f858582611f0a565b865550611fec565b601f198416611f9b86611d85565b5f5b82811015611fc257848901518255600182019150602085019450602081019050611f9d565b86831015611fdf5784890151611fdb601f891682611eee565b8355505b6001600288020188555050505b50505050505056fea264697066735822122096523286a728c49c1a8c77421179471fe0e5ae6467a407cb1f5488a1a775fd9964736f6c634300081c0033",
  "linkReferences": {},
  "deployedLinkReferences": {},
  "immutableReferences": {
    "112": [
      {
        "length": 32,
        "start": 2379
      },
      {
        "length": 32,
        "start": 4077
      }
    ]
  },
  "inputSourceName": "project/contracts/Kickstarter.sol",
  "buildInfoId": "solc-0_8_28-a7e15bd11b1b35c291ba78bf1b1a2052f12aaad7"
}